{
  "_format": "hh3-artifact-1",
  "contractName": "BetChain",
  "sourceName": "contracts/BetChain.sol",
  "abi": [
    {
      "anonymous": false,
      "inputs": [
        {
          "indexed": true,
          "internalType": "uint256",
          "name": "id",
          "type": "uint256"
        },
        {
          "indexed": true,
          "internalType": "address",
          "name": "creator",
          "type": "address"
        },
        {
          "indexed": false,
          "internalType": "string",
          "name": "title",
          "type": "string"
        }
      ],
      "name": "BetCreated",
      "type": "event"
    },
    {
      "anonymous": false,
      "inputs": [
        {
          "indexed": true,
          "internalType": "uint256",
          "name": "id",
          "type": "uint256"
        },
        {
          "indexed": false,
          "internalType": "uint256",
          "name": "winningOption",
          "type": "uint256"
        }
      ],
      "name": "BetFinalized",
      "type": "event"
    },
    {
      "anonymous": false,
      "inputs": [
        {
          "indexed": true,
          "internalType": "uint256",
          "name": "id",
          "type": "uint256"
        },
        {
          "indexed": false,
          "internalType": "uint256",
          "name": "optionId",
          "type": "uint256"
        },
        {
          "indexed": true,
          "internalType": "address",
          "name": "bettor",
          "type": "address"
        },
        {
          "indexed": false,
          "internalType": "uint256",
          "name": "amount",
          "type": "uint256"
        }
      ],
      "name": "BetPlaced",
      "type": "event"
    },
    {
      "anonymous": false,
      "inputs": [
        {
          "indexed": true,
          "internalType": "uint256",
          "name": "id",
          "type": "uint256"
        },
        {
          "indexed": true,
          "internalType": "address",
          "name": "winner",
          "type": "address"
        },
        {
          "indexed": false,
          "internalType": "uint256",
          "name": "amount",
          "type": "uint256"
        }
      ],
      "name": "PrizeWithdrawn",
      "type": "event"
    },
    {
      "inputs": [],
      "name": "FEE",
      "outputs": [
        {
          "internalType": "uint256",
          "name": "",
          "type": "uint256"
        }
      ],
      "stateMutability": "view",
      "type": "function"
    },
    {
      "inputs": [
        {
          "internalType": "uint256",
          "name": "",
          "type": "uint256"
        }
      ],
      "name": "bets",
      "outputs": [
        {
          "internalType": "address",
          "name": "creator",
          "type": "address"
        },
        {
          "internalType": "string",
          "name": "title",
          "type": "string"
        },
        {
          "internalType": "string",
          "name": "description",
          "type": "string"
        },
        {
          "internalType": "string",
          "name": "imageUrl",
          "type": "string"
        },
        {
          "internalType": "uint256",
          "name": "optionsCount",
          "type": "uint256"
        },
        {
          "internalType": "uint256",
          "name": "totalPool",
          "type": "uint256"
        },
        {
          "internalType": "bool",
          "name": "active",
          "type": "bool"
        },
        {
          "internalType": "bool",
          "name": "finalized",
          "type": "bool"
        },
        {
          "internalType": "uint256",
          "name": "winningOption",
          "type": "uint256"
        }
      ],
      "stateMutability": "view",
      "type": "function"
    },
    {
      "inputs": [
        {
          "internalType": "string",
          "name": "title",
          "type": "string"
        },
        {
          "internalType": "string",
          "name": "description",
          "type": "string"
        },
        {
          "internalType": "string",
          "name": "imageUrl",
          "type": "string"
        },
        {
          "internalType": "string[]",
          "name": "optionNames",
          "type": "string[]"
        }
      ],
      "name": "createBet",
      "outputs": [],
      "stateMutability": "nonpayable",
      "type": "function"
    },
    {
      "inputs": [
        {
          "internalType": "uint256",
          "name": "betId",
          "type": "uint256"
        },
        {
          "internalType": "uint256",
          "name": "winningOptionId",
          "type": "uint256"
        }
      ],
      "name": "finalizeBet",
      "outputs": [],
      "stateMutability": "nonpayable",
      "type": "function"
    },
    {
      "inputs": [
        {
          "internalType": "uint256",
          "name": "betId",
          "type": "uint256"
        }
      ],
      "name": "getBetInfo",
      "outputs": [
        {
          "internalType": "address",
          "name": "creator",
          "type": "address"
        },
        {
          "internalType": "string",
          "name": "title",
          "type": "string"
        },
        {
          "internalType": "string",
          "name": "description",
          "type": "string"
        },
        {
          "internalType": "uint256",
          "name": "totalPool",
          "type": "uint256"
        },
        {
          "internalType": "bool",
          "name": "active",
          "type": "bool"
        },
        {
          "internalType": "bool",
          "name": "finalized",
          "type": "bool"
        },
        {
          "internalType": "uint256",
          "name": "optionsCount",
          "type": "uint256"
        }
      ],
      "stateMutability": "view",
      "type": "function"
    },
    {
      "inputs": [
        {
          "internalType": "uint256",
          "name": "betId",
          "type": "uint256"
        },
        {
          "internalType": "uint256",
          "name": "optionId",
          "type": "uint256"
        }
      ],
      "name": "getOptionInfo",
      "outputs": [
        {
          "internalType": "string",
          "name": "name",
          "type": "string"
        },
        {
          "internalType": "uint256",
          "name": "totalBets",
          "type": "uint256"
        }
      ],
      "stateMutability": "view",
      "type": "function"
    },
    {
      "inputs": [
        {
          "internalType": "uint256",
          "name": "betId",
          "type": "uint256"
        },
        {
          "internalType": "uint256",
          "name": "optionId",
          "type": "uint256"
        },
        {
          "internalType": "address",
          "name": "user",
          "type": "address"
        }
      ],
      "name": "getUserBet",
      "outputs": [
        {
          "internalType": "uint256",
          "name": "",
          "type": "uint256"
        }
      ],
      "stateMutability": "view",
      "type": "function"
    },
    {
      "inputs": [],
      "name": "nextId",
      "outputs": [
        {
          "internalType": "uint256",
          "name": "",
          "type": "uint256"
        }
      ],
      "stateMutability": "view",
      "type": "function"
    },
    {
      "inputs": [
        {
          "internalType": "uint256",
          "name": "betId",
          "type": "uint256"
        },
        {
          "internalType": "uint256",
          "name": "optionId",
          "type": "uint256"
        }
      ],
      "name": "placeBet",
      "outputs": [],
      "stateMutability": "payable",
      "type": "function"
    },
    {
      "inputs": [
        {
          "internalType": "uint256",
          "name": "betId",
          "type": "uint256"
        }
      ],
      "name": "withdrawFee",
      "outputs": [],
      "stateMutability": "nonpayable",
      "type": "function"
    },
    {
      "inputs": [
        {
          "internalType": "uint256",
          "name": "betId",
          "type": "uint256"
        }
      ],
      "name": "withdrawPrize",
      "outputs": [],
      "stateMutability": "nonpayable",
      "type": "function"
    }
  ],
  "bytecode": "0x60806040525f5f553480156011575f5ffd5b506114e28061001f5f395ff3fe60806040526004361061009a575f3560e01c806393c434e51161006257806393c434e514610163578063be35761614610190578063c20eec7b146101af578063c27a31ba146101ce578063c57981b5146101ed578063c7254c6914610201575f5ffd5b806322af00fa1461009e5780634afe62b5146100db5780636116d24b146100f057806361b8ce8c1461011d57806379141f8014610131575b5f5ffd5b3480156100a9575f5ffd5b506100bd6100b8366004610f46565b610220565b6040516100d299989796959493929190610f8b565b60405180910390f35b6100ee6100e9366004611005565b61040b565b005b3480156100fb575f5ffd5b5061010f61010a366004611025565b61058b565b6040519081526020016100d2565b348015610128575f5ffd5b5061010f5f5481565b34801561013c575f5ffd5b5061015061014b366004610f46565b6105ea565b6040516100d29796959493929190611066565b34801561016e575f5ffd5b5061018261017d366004611005565b61076a565b6040516100d29291906110c2565b34801561019b575f5ffd5b506100ee6101aa366004610f46565b61084b565b3480156101ba575f5ffd5b506100ee6101c9366004610f46565b6109ba565b3480156101d9575f5ffd5b506100ee6101e8366004611121565b610bca565b3480156101f8575f5ffd5b5061010f606481565b34801561020c575f5ffd5b506100ee61021b366004611005565b610d9f565b600160208190525f9182526040909120805491810180546001600160a01b039093169261024c9061121f565b80601f01602080910402602001604051908101604052809291908181526020018280546102789061121f565b80156102c35780601f1061029a576101008083540402835291602001916102c3565b820191905f5260205f20905b8154815290600101906020018083116102a657829003601f168201915b5050505050908060020180546102d89061121f565b80601f01602080910402602001604051908101604052809291908181526020018280546103049061121f565b801561034f5780601f106103265761010080835404028352916020019161034f565b820191905f5260205f20905b81548152906001019060200180831161033257829003601f168201915b5050505050908060030180546103649061121f565b80601f01602080910402602001604051908101604052809291908181526020018280546103909061121f565b80156103db5780601f106103b2576101008083540402835291602001916103db565b820191905f5260205f20905b8154815290600101906020018083116103be57829003601f168201915b505050506004830154600684015460078501546008909501549394919390925060ff808316926101009004169089565b5f828152600160205260409020600781015460ff166104655760405162461bcd60e51b8152602060048201526011602482015270426574206973206e6f742061637469766560781b60448201526064015b60405180910390fd5b5f34116104b45760405162461bcd60e51b815260206004820152601d60248201527f416d6f756e74206d7573742062652067726561746572207468616e2030000000604482015260640161045c565b806004015482106104d75760405162461bcd60e51b815260040161045c90611257565b5f828152600582016020908152604080832033845260020190915281208054349290610504908490611293565b90915550505f8281526005820160205260408120600101805434929061052b908490611293565b9250508190555034816006015f8282546105459190611293565b909155505060408051838152346020820152339185917ffdd8ed02332acacb3420e7345a9adadb30877075eade2bcde9fe778e8bb71e42910160405180910390a3505050565b5f838152600160205260408120600481015484106105bb5760405162461bcd60e51b815260040161045c90611257565b5f938452600501602090815260408085206001600160a01b039490941685526002909301905250902054919050565b5f8181526001602081905260408220805460068201546007830154600484015494840180546060968796899687968796879693956001600160a01b0390931694600287019360ff80841693610100900416919086906106489061121f565b80601f01602080910402602001604051908101604052809291908181526020018280546106749061121f565b80156106bf5780601f10610696576101008083540402835291602001916106bf565b820191905f5260205f20905b8154815290600101906020018083116106a257829003601f168201915b505050505095508480546106d29061121f565b80601f01602080910402602001604051908101604052809291908181526020018280546106fe9061121f565b80156107495780601f1061072057610100808354040283529160200191610749565b820191905f5260205f20905b81548152906001019060200180831161072c57829003601f168201915b50505050509450975097509750975097509750975050919395979092949650565b5f82815260016020526040812060048101546060929190841061079f5760405162461bcd60e51b815260040161045c90611257565b5f84815260058201602052604090206001810154815482906107c09061121f565b80601f01602080910402602001604051908101604052809291908181526020018280546107ec9061121f565b80156108375780601f1061080e57610100808354040283529160200191610837565b820191905f5260205f20905b81548152906001019060200180831161081a57829003601f168201915b5050505050915092509250505b9250929050565b5f8181526001602052604090206007810154610100900460ff166108a95760405162461bcd60e51b815260206004820152601560248201527410995d081b9bdd08199a5b985b1a5e9959081e595d605a1b604482015260640161045c565b80546001600160a01b031633146109025760405162461bcd60e51b815260206004820152601d60248201527f4f6e6c792063726561746f722063616e20776974686472617720666565000000604482015260640161045c565b5f606490506064826006015f82825461091b91906112ac565b909155505081546040515f916001600160a01b03169083908381818185875af1925050503d805f8114610969576040519150601f19603f3d011682016040523d82523d5f602084013e61096e565b606091505b50509050806109b45760405162461bcd60e51b81526020600482015260126024820152714661696c656420746f2073656e642066656560701b604482015260640161045c565b50505050565b5f8181526001602052604090206007810154610100900460ff16610a185760405162461bcd60e51b815260206004820152601560248201527410995d081b9bdd08199a5b985b1a5e9959081e595d605a1b604482015260640161045c565b60088101545f908152600582016020908152604080832033845260020190915290205480610a925760405162461bcd60e51b815260206004820152602160248201527f596f7520646964206e6f7420626574206f6e2077696e6e696e67206f7074696f6044820152603760f91b606482015260840161045c565b60088201545f9081526005830160205260408120600101546006840154909190610abe906064906112ac565b90505f82610acc85846112bf565b610ad691906112d6565b60088601545f908152600587016020908152604080832033808552600290910190925280832083905551929350909183908381818185875af1925050503d805f8114610b3d576040519150601f19603f3d011682016040523d82523d5f602084013e610b42565b606091505b5050905080610b8a5760405162461bcd60e51b81526020600482015260146024820152734661696c656420746f2073656e64207072697a6560601b604482015260640161045c565b604051828152339088907ff3c1367748323bb3414df103a8bfff0ae19678e2dc80b4ef2b1a5016a992272a9060200160405180910390a350505050505050565b6002811015610c1b5760405162461bcd60e51b815260206004820152601c60248201527f4d7573742068617665206174206c656173742032206f7074696f6e7300000000604482015260640161045c565b600a811115610c6c5760405162461bcd60e51b815260206004820152601a60248201527f4d6178696d756d203130206f7074696f6e7320616c6c6f776564000000000000604482015260640161045c565b5f80549080610c7a836112f5565b90915550505f8054815260016020819052604090912080546001600160a01b03191633178155908101610cae898b8361136d565b5060028101610cbe87898361136d565b5060038101610cce85878361136d565b506004810182905560078101805461ffff191660011790555f5b82811015610d4e57838382818110610d0257610d02611427565b9050602002810190610d14919061143b565b5f838152600585016020526040902091610d2f91908361136d565b505f818152600583016020526040812060019081019190915501610ce8565b50336001600160a01b03165f547f6ed99bb502080e4d8a350e358e001cb398d4bf12631314e1dd3eeb285be8e6de8b8b604051610d8c92919061147e565b60405180910390a3505050505050505050565b5f828152600160205260409020600781015460ff16610df45760405162461bcd60e51b8152602060048201526011602482015270426574206973206e6f742061637469766560781b604482015260640161045c565b80546001600160a01b03163314610e4d5760405162461bcd60e51b815260206004820152601960248201527f4f6e6c792063726561746f722063616e2066696e616c697a6500000000000000604482015260640161045c565b80600401548210610e995760405162461bcd60e51b815260206004820152601660248201527524b73b30b634b2103bb4b73734b7339037b83a34b7b760511b604482015260640161045c565b6064816006015411610eed5760405162461bcd60e51b815260206004820152601a60248201527f506f6f6c20746f6f20736d616c6c20746f2066696e616c697a65000000000000604482015260640161045c565b60078101805461ffff19166101001790556008810182905560405183907fe7a989d4aa057f3a5ff3264e41af4584df99193791a2549a74068dd48f84cdd990610f399085815260200190565b60405180910390a2505050565b5f60208284031215610f56575f5ffd5b5035919050565b5f81518084528060208401602086015e5f602082860101526020601f19601f83011685010191505092915050565b6001600160a01b038a168152610120602082018190525f90610faf9083018b610f5d565b8281036040840152610fc1818b610f5d565b90508281036060840152610fd5818a610f5d565b6080840198909852505060a081019490945291151560c0840152151560e083015261010090910152949350505050565b5f5f60408385031215611016575f5ffd5b50508035926020909101359150565b5f5f5f60608486031215611037575f5ffd5b833592506020840135915060408401356001600160a01b038116811461105b575f5ffd5b809150509250925092565b6001600160a01b038816815260e0602082018190525f9061108990830189610f5d565b828103604084015261109b8189610f5d565b60608401979097525050921515608084015290151560a083015260c0909101529392505050565b604081525f6110d46040830185610f5d565b90508260208301529392505050565b5f5f83601f8401126110f3575f5ffd5b50813567ffffffffffffffff81111561110a575f5ffd5b602083019150836020828501011115610844575f5ffd5b5f5f5f5f5f5f5f5f6080898b031215611138575f5ffd5b883567ffffffffffffffff81111561114e575f5ffd5b61115a8b828c016110e3565b909950975050602089013567ffffffffffffffff811115611179575f5ffd5b6111858b828c016110e3565b909750955050604089013567ffffffffffffffff8111156111a4575f5ffd5b6111b08b828c016110e3565b909550935050606089013567ffffffffffffffff8111156111cf575f5ffd5b8901601f81018b136111df575f5ffd5b803567ffffffffffffffff8111156111f5575f5ffd5b8b60208260051b8401011115611209575f5ffd5b989b979a50959850939692959194602001935050565b600181811c9082168061123357607f821691505b60208210810361125157634e487b7160e01b5f52602260045260245ffd5b50919050565b6020808252600e908201526d24b73b30b634b21037b83a34b7b760911b604082015260600190565b634e487b7160e01b5f52601160045260245ffd5b808201808211156112a6576112a661127f565b92915050565b818103818111156112a6576112a661127f565b80820281158282048414176112a6576112a661127f565b5f826112f057634e487b7160e01b5f52601260045260245ffd5b500490565b5f600182016113065761130661127f565b5060010190565b634e487b7160e01b5f52604160045260245ffd5b601f82111561136857805f5260205f20601f840160051c810160208510156113465750805b601f840160051c820191505b81811015611365575f8155600101611352565b50505b505050565b67ffffffffffffffff8311156113855761138561130d565b61139983611393835461121f565b83611321565b5f601f8411600181146113ca575f85156113b35750838201355b5f19600387901b1c1916600186901b178355611365565b5f83815260208120601f198716915b828110156113f957868501358255602094850194600190920191016113d9565b5086821015611415575f1960f88860031b161c19848701351681555b505060018560011b0183555050505050565b634e487b7160e01b5f52603260045260245ffd5b5f5f8335601e19843603018112611450575f5ffd5b83018035915067ffffffffffffffff82111561146a575f5ffd5b602001915036819003821315610844575f5ffd5b60208152816020820152818360408301375f818301604090810191909152601f909201601f1916010191905056fea264697066735822122053f6f910392fb11fc96bcbfb582da31905c2f1407cfa073e65ffda2040a8a02f64736f6c634300081e0033",
  "linkReferences": {},
  "deployedLinkReferences": {},
  "immutableReferences": {},
  "inputSourceName": "project/contracts/BetChain.sol",
  "buildInfoId": "solc-0_8_30-416de5fdf3a978253a2def852bc6d4530284d760"
}