{"abi":[{"type":"function","name":"FEE","inputs":[],"outputs":[{"name":"","type":"uint256","internalType":"uint256"}],"stateMutability":"view"},{"type":"function","name":"bets","inputs":[{"name":"","type":"uint256","internalType":"uint256"}],"outputs":[{"name":"creator","type":"address","internalType":"address"},{"name":"title","type":"string","internalType":"string"},{"name":"description","type":"string","internalType":"string"},{"name":"imageUrl","type":"string","internalType":"string"},{"name":"optionsCount","type":"uint256","internalType":"uint256"},{"name":"totalPool","type":"uint256","internalType":"uint256"},{"name":"active","type":"bool","internalType":"bool"},{"name":"finalized","type":"bool","internalType":"bool"},{"name":"winningOption","type":"uint256","internalType":"uint256"}],"stateMutability":"view"},{"type":"function","name":"createBet","inputs":[{"name":"title","type":"string","internalType":"string"},{"name":"description","type":"string","internalType":"string"},{"name":"imageUrl","type":"string","internalType":"string"},{"name":"optionNames","type":"string[]","internalType":"string[]"}],"outputs":[],"stateMutability":"nonpayable"},{"type":"function","name":"finalizeBet","inputs":[{"name":"betId","type":"uint256","internalType":"uint256"},{"name":"winningOptionId","type":"uint256","internalType":"uint256"}],"outputs":[],"stateMutability":"nonpayable"},{"type":"function","name":"getBetInfo","inputs":[{"name":"betId","type":"uint256","internalType":"uint256"}],"outputs":[{"name":"creator","type":"address","internalType":"address"},{"name":"title","type":"string","internalType":"string"},{"name":"description","type":"string","internalType":"string"},{"name":"totalPool","type":"uint256","internalType":"uint256"},{"name":"active","type":"bool","internalType":"bool"},{"name":"finalized","type":"bool","internalType":"bool"},{"name":"optionsCount","type":"uint256","internalType":"uint256"}],"stateMutability":"view"},{"type":"function","name":"getOptionInfo","inputs":[{"name":"betId","type":"uint256","internalType":"uint256"},{"name":"optionId","type":"uint256","internalType":"uint256"}],"outputs":[{"name":"name","type":"string","internalType":"string"},{"name":"totalBets","type":"uint256","internalType":"uint256"}],"stateMutability":"view"},{"type":"function","name":"getUserBet","inputs":[{"name":"betId","type":"uint256","internalType":"uint256"},{"name":"optionId","type":"uint256","internalType":"uint256"},{"name":"user","type":"address","internalType":"address"}],"outputs":[{"name":"","type":"uint256","internalType":"uint256"}],"stateMutability":"view"},{"type":"function","name":"nextId","inputs":[],"outputs":[{"name":"","type":"uint256","internalType":"uint256"}],"stateMutability":"view"},{"type":"function","name":"placeBet","inputs":[{"name":"betId","type":"uint256","internalType":"uint256"},{"name":"optionId","type":"uint256","internalType":"uint256"}],"outputs":[],"stateMutability":"payable"},{"type":"function","name":"withdrawFee","inputs":[{"name":"betId","type":"uint256","internalType":"uint256"}],"outputs":[],"stateMutability":"nonpayable"},{"type":"function","name":"withdrawPrize","inputs":[{"name":"betId","type":"uint256","internalType":"uint256"}],"outputs":[],"stateMutability":"nonpayable"},{"type":"event","name":"BetCreated","inputs":[{"name":"id","type":"uint256","indexed":true,"internalType":"uint256"},{"name":"creator","type":"address","indexed":true,"internalType":"address"},{"name":"title","type":"string","indexed":false,"internalType":"string"}],"anonymous":false},{"type":"event","name":"BetFinalized","inputs":[{"name":"id","type":"uint256","indexed":true,"internalType":"uint256"},{"name":"winningOption","type":"uint256","indexed":false,"internalType":"uint256"}],"anonymous":false},{"type":"event","name":"BetPlaced","inputs":[{"name":"id","type":"uint256","indexed":true,"internalType":"uint256"},{"name":"optionId","type":"uint256","indexed":false,"internalType":"uint256"},{"name":"bettor","type":"address","indexed":true,"internalType":"address"},{"name":"amount","type":"uint256","indexed":false,"internalType":"uint256"}],"anonymous":false},{"type":"event","name":"PrizeWithdrawn","inputs":[{"name":"id","type":"uint256","indexed":true,"internalType":"uint256"},{"name":"winner","type":"address","indexed":true,"internalType":"address"},{"name":"amount","type":"uint256","indexed":false,"internalType":"uint256"}],"anonymous":false}],"bytecode":{"object":"0x608060405260008055348015601357600080fd5b5061271e806100236000396000f3fe60806040526004361061009c5760003560e01c806393c434e51161006457806393c434e5146101ad578063be357616146101eb578063c20eec7b14610214578063c27a31ba1461023d578063c57981b514610266578063c7254c69146102915761009c565b806322af00fa146100a15780634afe62b5146100e65780636116d24b1461010257806361b8ce8c1461013f57806379141f801461016a575b600080fd5b3480156100ad57600080fd5b506100c860048036038101906100c39190611506565b6102ba565b6040516100dd9998979695949392919061162e565b60405180910390f35b61010060048036038101906100fb91906116d0565b6104da565b005b34801561010e57600080fd5b506101296004803603810190610124919061173c565b610729565b604051610136919061178f565b60405180910390f35b34801561014b57600080fd5b506101546107e7565b604051610161919061178f565b60405180910390f35b34801561017657600080fd5b50610191600480360381019061018c9190611506565b6107ed565b6040516101a497969594939291906117aa565b60405180910390f35b3480156101b957600080fd5b506101d460048036038101906101cf91906116d0565b61099c565b6040516101e2929190611827565b60405180910390f35b3480156101f757600080fd5b50610212600480360381019061020d9190611506565b610ac5565b005b34801561022057600080fd5b5061023b60048036038101906102369190611506565b610cff565b005b34801561024957600080fd5b50610264600480360381019061025f9190611912565b611003565b005b34801561027257600080fd5b5061027b611268565b604051610288919061178f565b60405180910390f35b34801561029d57600080fd5b506102b860048036038101906102b391906116d0565b61126d565b005b60016020528060005260406000206000915090508060000160009054906101000a900473ffffffffffffffffffffffffffffffffffffffff169080600101805461030390611a2a565b80601f016020809104026020016040519081016040528092919081815260200182805461032f90611a2a565b801561037c5780601f106103515761010080835404028352916020019161037c565b820191906000526020600020905b81548152906001019060200180831161035f57829003601f168201915b50505050509080600201805461039190611a2a565b80601f01602080910402602001604051908101604052809291908181526020018280546103bd90611a2a565b801561040a5780601f106103df5761010080835404028352916020019161040a565b820191906000526020600020905b8154815290600101906020018083116103ed57829003601f168201915b50505050509080600301805461041f90611a2a565b80601f016020809104026020016040519081016040528092919081815260200182805461044b90611a2a565b80156104985780601f1061046d57610100808354040283529160200191610498565b820191906000526020600020905b81548152906001019060200180831161047b57829003601f168201915b5050505050908060040154908060060154908060070160009054906101000a900460ff16908060070160019054906101000a900460ff16908060080154905089565b60006001600084815260200190815260200160002090508060070160009054906101000a900460ff16610542576040517f08c379a000000000000000000000000000000000000000000000000000000000815260040161053990611aa7565b60405180910390fd5b8060070160019054906101000a900460ff1615610594576040517f08c379a000000000000000000000000000000000000000000000000000000000815260040161058b90611b13565b60405180910390fd5b600034116105d7576040517f08c379a00000000000000000000000000000000000000000000000000000000081526004016105ce90611b7f565b60405180910390fd5b8060040154821061061d576040517f08c379a000000000000000000000000000000000000000000000000000000000815260040161061490611beb565b60405180910390fd5b3481600501600084815260200190815260200160002060020160003373ffffffffffffffffffffffffffffffffffffffff1673ffffffffffffffffffffffffffffffffffffffff16815260200190815260200160002060008282546106829190611c3a565b925050819055503481600501600084815260200190815260200160002060010160008282546106b19190611c3a565b92505081905550348160060160008282546106cc9190611c3a565b925050819055503373ffffffffffffffffffffffffffffffffffffffff16837ffdd8ed02332acacb3420e7345a9adadb30877075eade2bcde9fe778e8bb71e42843460405161071c929190611c6e565b60405180910390a3505050565b60008060016000868152602001908152602001600020905080600401548410610787576040517f08c379a000000000000000000000000000000000000000000000000000000000815260040161077e90611beb565b60405180910390fd5b80600501600085815260200190815260200160002060020160008473ffffffffffffffffffffffffffffffffffffffff1673ffffffffffffffffffffffffffffffffffffffff168152602001908152602001600020549150509392505050565b60005481565b60006060806000806000806000600160008a815260200190815260200160002090508060000160009054906101000a900473ffffffffffffffffffffffffffffffffffffffff16816001018260020183600601548460070160009054906101000a900460ff168560070160019054906101000a900460ff16866004015485805461087690611a2a565b80601f01602080910402602001604051908101604052809291908181526020018280546108a290611a2a565b80156108ef5780601f106108c4576101008083540402835291602001916108ef565b820191906000526020600020905b8154815290600101906020018083116108d257829003601f168201915b5050505050955084805461090290611a2a565b80601f016020809104026020016040519081016040528092919081815260200182805461092e90611a2a565b801561097b5780601f106109505761010080835404028352916020019161097b565b820191906000526020600020905b81548152906001019060200180831161095e57829003601f168201915b50505050509450975097509750975097509750975050919395979092949650565b6060600080600160008681526020019081526020016000209050806004015484106109fc576040517f08c379a00000000000000000000000000000000000000000000000000000000081526004016109f390611beb565b60405180910390fd5b80600501600085815260200190815260200160002060000181600501600086815260200190815260200160002060010154818054610a3990611a2a565b80601f0160208091040260200160405190810160405280929190818152602001828054610a6590611a2a565b8015610ab25780601f10610a8757610100808354040283529160200191610ab2565b820191906000526020600020905b815481529060010190602001808311610a9557829003601f168201915b5050505050915092509250509250929050565b60006001600083815260200190815260200160002090508060070160019054906101000a900460ff16610b2d576040517f08c379a0000000000000000000000000000000000000000000000000000000008152600401610b2490611ce3565b60405180910390fd5b3373ffffffffffffffffffffffffffffffffffffffff168160000160009054906101000a900473ffffffffffffffffffffffffffffffffffffffff1673ffffffffffffffffffffffffffffffffffffffff1614610bbf576040517f08c379a0000000000000000000000000000000000000000000000000000000008152600401610bb690611d4f565b60405180910390fd5b606481600601541015610c07576040517f08c379a0000000000000000000000000000000000000000000000000000000008152600401610bfe90611dbb565b60405180910390fd5b6000606490506064826006016000828254610c229190611ddb565b9250508190555060008260000160009054906101000a900473ffffffffffffffffffffffffffffffffffffffff1673ffffffffffffffffffffffffffffffffffffffff1682604051610c7390611e40565b60006040518083038185875af1925050503d8060008114610cb0576040519150601f19603f3d011682016040523d82523d6000602084013e610cb5565b606091505b5050905080610cf9576040517f08c379a0000000000000000000000000000000000000000000000000000000008152600401610cf090611ea1565b60405180910390fd5b50505050565b60006001600083815260200190815260200160002090508060070160019054906101000a900460ff16610d67576040517f08c379a0000000000000000000000000000000000000000000000000000000008152600401610d5e90611ce3565b60405180910390fd5b6064816006015411610dae576040517f08c379a0000000000000000000000000000000000000000000000000000000008152600401610da590611f0d565b60405180910390fd5b60008160050160008360080154815260200190815260200160002060020160003373ffffffffffffffffffffffffffffffffffffffff1673ffffffffffffffffffffffffffffffffffffffff16815260200190815260200160002054905060008111610e4f576040517f08c379a0000000000000000000000000000000000000000000000000000000008152600401610e4690611f9f565b60405180910390fd5b600082600501600084600801548152602001908152602001600020600101549050600060648460060154610e839190611ddb565b90506000828483610e949190611fbf565b610e9e9190612030565b905060008560050160008760080154815260200190815260200160002060020160003373ffffffffffffffffffffffffffffffffffffffff1673ffffffffffffffffffffffffffffffffffffffff1681526020019081526020016000208190555060003373ffffffffffffffffffffffffffffffffffffffff1682604051610f2590611e40565b60006040518083038185875af1925050503d8060008114610f62576040519150601f19603f3d011682016040523d82523d6000602084013e610f67565b606091505b5050905080610fab576040517f08c379a0000000000000000000000000000000000000000000000000000000008152600401610fa2906120ad565b60405180910390fd5b3373ffffffffffffffffffffffffffffffffffffffff16877ff3c1367748323bb3414df103a8bfff0ae19678e2dc80b4ef2b1a5016a992272a84604051610ff2919061178f565b60405180910390a350505050505050565b600282829050101561104a576040517f08c379a000000000000000000000000000000000000000000000000000000000815260040161104190612119565b60405180910390fd5b600a828290501115611091576040517f08c379a000000000000000000000000000000000000000000000000000000000815260040161108890612185565b60405180910390fd5b6000808154809291906110a3906121a5565b9190505550600060016000805481526020019081526020016000209050338160000160006101000a81548173ffffffffffffffffffffffffffffffffffffffff021916908373ffffffffffffffffffffffffffffffffffffffff16021790555088888260010191826111169291906123d3565b50868682600201918261112a9291906123d3565b50848482600301918261113e9291906123d3565b5082829050816004018190555060018160070160006101000a81548160ff02191690831515021790555060008160070160016101000a81548160ff02191690831515021790555060005b83839050811015611209578383828181106111a6576111a56124a3565b5b90506020028101906111b891906124e1565b83600501600084815260200190815260200160002060000191826111dd9291906123d3565b506000826005016000838152602001908152602001600020600101819055508080600101915050611188565b503373ffffffffffffffffffffffffffffffffffffffff166000547f6ed99bb502080e4d8a350e358e001cb398d4bf12631314e1dd3eeb285be8e6de8b8b604051611255929190612580565b60405180910390a3505050505050505050565b606481565b60006001600084815260200190815260200160002090508060070160009054906101000a900460ff166112d5576040517f08c379a00000000000000000000000000000000000000000000000000000000081526004016112cc90611aa7565b60405180910390fd5b8060070160019054906101000a900460ff1615611327576040517f08c379a000000000000000000000000000000000000000000000000000000000815260040161131e90611b13565b60405180910390fd5b3373ffffffffffffffffffffffffffffffffffffffff168160000160009054906101000a900473ffffffffffffffffffffffffffffffffffffffff1673ffffffffffffffffffffffffffffffffffffffff16146113b9576040517f08c379a00000000000000000000000000000000000000000000000000000000081526004016113b0906125f0565b60405180910390fd5b806004015482106113ff576040517f08c379a00000000000000000000000000000000000000000000000000000000081526004016113f69061265c565b60405180910390fd5b6064816006015411611446576040517f08c379a000000000000000000000000000000000000000000000000000000000815260040161143d906126c8565b60405180910390fd5b60018160070160016101000a81548160ff02191690831515021790555060008160070160006101000a81548160ff021916908315150217905550818160080181905550827fe7a989d4aa057f3a5ff3264e41af4584df99193791a2549a74068dd48f84cdd9836040516114b9919061178f565b60405180910390a2505050565b600080fd5b600080fd5b6000819050919050565b6114e3816114d0565b81146114ee57600080fd5b50565b600081359050611500816114da565b92915050565b60006020828403121561151c5761151b6114c6565b5b600061152a848285016114f1565b91505092915050565b600073ffffffffffffffffffffffffffffffffffffffff82169050919050565b600061155e82611533565b9050919050565b61156e81611553565b82525050565b600081519050919050565b600082825260208201905092915050565b60005b838110156115ae578082015181840152602081019050611593565b60008484015250505050565b6000601f19601f8301169050919050565b60006115d682611574565b6115e0818561157f565b93506115f0818560208601611590565b6115f9816115ba565b840191505092915050565b61160d816114d0565b82525050565b60008115159050919050565b61162881611613565b82525050565b600061012082019050611644600083018c611565565b8181036020830152611656818b6115cb565b9050818103604083015261166a818a6115cb565b9050818103606083015261167e81896115cb565b905061168d6080830188611604565b61169a60a0830187611604565b6116a760c083018661161f565b6116b460e083018561161f565b6116c2610100830184611604565b9a9950505050505050505050565b600080604083850312156116e7576116e66114c6565b5b60006116f5858286016114f1565b9250506020611706858286016114f1565b9150509250929050565b61171981611553565b811461172457600080fd5b50565b60008135905061173681611710565b92915050565b600080600060608486031215611755576117546114c6565b5b6000611763868287016114f1565b9350506020611774868287016114f1565b925050604061178586828701611727565b9150509250925092565b60006020820190506117a46000830184611604565b92915050565b600060e0820190506117bf600083018a611565565b81810360208301526117d181896115cb565b905081810360408301526117e581886115cb565b90506117f46060830187611604565b611801608083018661161f565b61180e60a083018561161f565b61181b60c0830184611604565b98975050505050505050565b6000604082019050818103600083015261184181856115cb565b90506118506020830184611604565b9392505050565b600080fd5b600080fd5b600080fd5b60008083601f84011261187c5761187b611857565b5b8235905067ffffffffffffffff8111156118995761189861185c565b5b6020830191508360018202830111156118b5576118b4611861565b5b9250929050565b60008083601f8401126118d2576118d1611857565b5b8235905067ffffffffffffffff8111156118ef576118ee61185c565b5b60208301915083602082028301111561190b5761190a611861565b5b9250929050565b6000806000806000806000806080898b031215611932576119316114c6565b5b600089013567ffffffffffffffff8111156119505761194f6114cb565b5b61195c8b828c01611866565b9850985050602089013567ffffffffffffffff81111561197f5761197e6114cb565b5b61198b8b828c01611866565b9650965050604089013567ffffffffffffffff8111156119ae576119ad6114cb565b5b6119ba8b828c01611866565b9450945050606089013567ffffffffffffffff8111156119dd576119dc6114cb565b5b6119e98b828c016118bc565b92509250509295985092959890939650565b7f4e487b7100000000000000000000000000000000000000000000000000000000600052602260045260246000fd5b60006002820490506001821680611a4257607f821691505b602082108103611a5557611a546119fb565b5b50919050565b7f426574206973206e6f7420616374697665000000000000000000000000000000600082015250565b6000611a9160118361157f565b9150611a9c82611a5b565b602082019050919050565b60006020820190508181036000830152611ac081611a84565b9050919050565b7f42657420616c72656164792066696e616c697a65640000000000000000000000600082015250565b6000611afd60158361157f565b9150611b0882611ac7565b602082019050919050565b60006020820190508181036000830152611b2c81611af0565b9050919050565b7f416d6f756e74206d7573742062652067726561746572207468616e2030000000600082015250565b6000611b69601d8361157f565b9150611b7482611b33565b602082019050919050565b60006020820190508181036000830152611b9881611b5c565b9050919050565b7f496e76616c6964206f7074696f6e000000000000000000000000000000000000600082015250565b6000611bd5600e8361157f565b9150611be082611b9f565b602082019050919050565b60006020820190508181036000830152611c0481611bc8565b9050919050565b7f4e487b7100000000000000000000000000000000000000000000000000000000600052601160045260246000fd5b6000611c45826114d0565b9150611c50836114d0565b9250828201905080821115611c6857611c67611c0b565b5b92915050565b6000604082019050611c836000830185611604565b611c906020830184611604565b9392505050565b7f426574206e6f742066696e616c697a6564207965740000000000000000000000600082015250565b6000611ccd60158361157f565b9150611cd882611c97565b602082019050919050565b60006020820190508181036000830152611cfc81611cc0565b9050919050565b7f4f6e6c792063726561746f722063616e20776974686472617720666565000000600082015250565b6000611d39601d8361157f565b9150611d4482611d03565b602082019050919050565b60006020820190508181036000830152611d6881611d2c565b9050919050565b7f4e6f2066656520746f2077697468647261770000000000000000000000000000600082015250565b6000611da560128361157f565b9150611db082611d6f565b602082019050919050565b60006020820190508181036000830152611dd481611d98565b9050919050565b6000611de6826114d0565b9150611df1836114d0565b9250828203905081811115611e0957611e08611c0b565b5b92915050565b600081905092915050565b50565b6000611e2a600083611e0f565b9150611e3582611e1a565b600082019050919050565b6000611e4b82611e1d565b9150819050919050565b7f4661696c656420746f2073656e64206665650000000000000000000000000000600082015250565b6000611e8b60128361157f565b9150611e9682611e55565b602082019050919050565b60006020820190508181036000830152611eba81611e7e565b9050919050565b7f4e6f207072697a6520746f207769746864726177000000000000000000000000600082015250565b6000611ef760148361157f565b9150611f0282611ec1565b602082019050919050565b60006020820190508181036000830152611f2681611eea565b9050919050565b7f596f7520646964206e6f7420626574206f6e2077696e6e696e67206f7074696f60008201527f6e00000000000000000000000000000000000000000000000000000000000000602082015250565b6000611f8960218361157f565b9150611f9482611f2d565b604082019050919050565b60006020820190508181036000830152611fb881611f7c565b9050919050565b6000611fca826114d0565b9150611fd5836114d0565b9250828202611fe3816114d0565b91508282048414831517611ffa57611ff9611c0b565b5b5092915050565b7f4e487b7100000000000000000000000000000000000000000000000000000000600052601260045260246000fd5b600061203b826114d0565b9150612046836114d0565b92508261205657612055612001565b5b828204905092915050565b7f4661696c656420746f2073656e64207072697a65000000000000000000000000600082015250565b600061209760148361157f565b91506120a282612061565b602082019050919050565b600060208201905081810360008301526120c68161208a565b9050919050565b7f4d7573742068617665206174206c656173742032206f7074696f6e7300000000600082015250565b6000612103601c8361157f565b915061210e826120cd565b602082019050919050565b60006020820190508181036000830152612132816120f6565b9050919050565b7f4d6178696d756d203130206f7074696f6e7320616c6c6f776564000000000000600082015250565b600061216f601a8361157f565b915061217a82612139565b602082019050919050565b6000602082019050818103600083015261219e81612162565b9050919050565b60006121b0826114d0565b91507fffffffffffffffffffffffffffffffffffffffffffffffffffffffffffffffff82036121e2576121e1611c0b565b5b600182019050919050565b600082905092915050565b7f4e487b7100000000000000000000000000000000000000000000000000000000600052604160045260246000fd5b60008190508160005260206000209050919050565b60006020601f8301049050919050565b600082821b905092915050565b6000600883026122897fffffffffffffffffffffffffffffffffffffffffffffffffffffffffffffffff8261224c565b612293868361224c565b95508019841693508086168417925050509392505050565b6000819050919050565b60006122d06122cb6122c6846114d0565b6122ab565b6114d0565b9050919050565b6000819050919050565b6122ea836122b5565b6122fe6122f6826122d7565b848454612259565b825550505050565b600090565b612313612306565b61231e8184846122e1565b505050565b5b818110156123425761233760008261230b565b600181019050612324565b5050565b601f8211156123875761235881612227565b6123618461223c565b81016020851015612370578190505b61238461237c8561223c565b830182612323565b50505b505050565b600082821c905092915050565b60006123aa6000198460080261238c565b1980831691505092915050565b60006123c38383612399565b9150826002028217905092915050565b6123dd83836121ed565b67ffffffffffffffff8111156123f6576123f56121f8565b5b6124008254611a2a565b61240b828285612346565b6000601f83116001811461243a5760008415612428578287013590505b61243285826123b7565b86555061249a565b601f19841661244886612227565b60005b828110156124705784890135825560018201915060208501945060208101905061244b565b8683101561248d5784890135612489601f891682612399565b8355505b6001600288020188555050505b50505050505050565b7f4e487b7100000000000000000000000000000000000000000000000000000000600052603260045260246000fd5b600080fd5b600080fd5b600080fd5b600080833560016020038436030381126124fe576124fd6124d2565b5b80840192508235915067ffffffffffffffff8211156125205761251f6124d7565b5b60208301925060018202360383131561253c5761253b6124dc565b5b509250929050565b82818337600083830152505050565b600061255f838561157f565b935061256c838584612544565b612575836115ba565b840190509392505050565b6000602082019050818103600083015261259b818486612553565b90509392505050565b7f4f6e6c792063726561746f722063616e2066696e616c697a6500000000000000600082015250565b60006125da60198361157f565b91506125e5826125a4565b602082019050919050565b60006020820190508181036000830152612609816125cd565b9050919050565b7f496e76616c69642077696e6e696e67206f7074696f6e00000000000000000000600082015250565b600061264660168361157f565b915061265182612610565b602082019050919050565b6000602082019050818103600083015261267581612639565b9050919050565b7f506f6f6c20746f6f20736d616c6c20746f2066696e616c697a65000000000000600082015250565b60006126b2601a8361157f565b91506126bd8261267c565b602082019050919050565b600060208201905081810360008301526126e1816126a5565b905091905056fea26469706673582212205921058b3d3dbd48df076c4f8404e6712a9d53d2b0733d8eaa2e652955cc563e64736f6c634300081e0033","linkReferences":{}},"methodIdentifiers":{"FEE()":"c57981b5","bets(uint256)":"22af00fa","createBet(string,string,string,string[])":"c27a31ba","finalizeBet(uint256,uint256)":"c7254c69","getBetInfo(uint256)":"79141f80","getOptionInfo(uint256,uint256)":"93c434e5","getUserBet(uint256,uint256,address)":"6116d24b","nextId()":"61b8ce8c","placeBet(uint256,uint256)":"4afe62b5","withdrawFee(uint256)":"be357616","withdrawPrize(uint256)":"c20eec7b"},"id":0}